:020000040800F2
:10000000A0160020213D000855660008576600082C
:100010005B6600085F660008636600080000000079
:1000200000000000000000000000000067660008FB
:1000300069660008000000006B6600086D66000835
:100040000B3D00083B3D00083B3D00083B3D0008E0
:100050003B3D00083B3D00083B3D00083B3D0008A0
:100060003B3D00083B3D00083B3D00083B3D000890
:100070003B3D00083B3D00083B3D00083B3D000880
:100080003B3D00083B3D00083B3D00083B3D000870
:10009000171500083B3D00083B3D00083B3D0008AC
:1000A0003B3D00083B3D00083B3D00083B3D000850
:1000B0003B3D00083B3D00083B3D00083B3D000840
:1000C0003B3D00083B3D00083B3D00083B3D000830
:1000D0003B3D00083B3D00088D2A00083B3D0008E1
:1000E0003B3D00083B3D00083B3D00083B3D000810
:1000F0003B3D00083B3D00083B3D00083B3D000800
:100100003B3D00083B3D00083B3D00083B3D0008EF
:100110003B3D00083B3D0008F92400083B3D00083A
:100120003B3D00083B3D00083B3D00083B3D0008CF
:100130003B3D00083B3D00083B3D00083B3D0008BF
:100140003B3D00083B3D00083B3D00083B3D0008AF
:10015000731600083B3D00083B3D00087929000864
:100160003B3D00083B3D00083B3D00083B3D00088F
:100170003B3D00083B3D00083B3D00083B3D00087F
:100180003B3D00083B3D00083B3D00083B3D00086F
:100190003B3D00083B3D00083B3D00083B3D00085F
:1001A00000000000000000003B3D000800F002F8E5
:1001B00000F055F80AA090E8000C82448344AAF1AC
:1001C0000107DA4501D100F04AF8AFF2090EBAE8AA
:1001D0000F0013F0010F18BFFB1A43F0010318477B
:1001E0002498000044980000103A24BF78C878C1D1
:1001F000FAD8520724BF30C830C144BF04680C602D
:10020000704700000023002400250026103A28BF74
:1002100078C1FBD8520728BF30C148BF0B60704778
:10022000662909F0A481642906F0D684732907F0B1
:100230001880002070471FB509F08FF907F0AAF861
:1002400004000020002108F083FC401C60600020B6
:10025000002108F067FCE0601FBD10B510BD07F07D
:10026000DBF91146FFF7E7FF06F011FC07F054FC3D
:1002700003B4FFF7F2FF03BC02F0DCF910B502F0A3
:10028000EBFC10BD10B50C48407A012810D140F2AB
:10029000523002F0BAFC022006F08EFB07480068DC
:1002A00048B9074802F0B1FCC82006F085FB02E01F
:1002B000002002F0AAFC10BDE009002094050020F7
:1002C00044FDFFFF10B502F0F9FC9FED7D1ADFED54
:1002D0007D0A9FED7D0A01231A4603217B4800F029
:1002E000B0FB10BD10B586B07948C088A0F580601D
:1002F00000EE100AB8EEC00ADFED760A20EE200A02
:10030000754880ED000A72488088A0F5806000EE94
:10031000100AB8EEC00ADFED6F0A20EE200A6F481F
:1003200080ED000A6A48007A02280FD168480088E8
:10033000A0F5806000EE100AB8EEC00ADFED680A92
:1003400020EE200A674880ED000A04E09FED5C0A79
:10035000644880ED000A614890ED000A5E48D0EDE7
:10036000000A30EE600A5F48D0ED000A9FED5E1A89
:1003700000EE810A8DED030A584890ED000A5648B8
:10038000D0ED000A30EE200A5648D0ED000A9FED6D
:10039000561A00EE810A8DED020A504890ED000ACF
:1003A0004D48D0ED000A30EE600A4E48D0ED000A0C
:1003B0009FED4D1A10EE810A8DED010A474890ED30
:1003C000000A4548D0ED000A30EE200A4548D0ED3D
:1003D000000A9FED451A10EE810A8DED000A0024F7
:1003E0001AE0684600EB840090ED000AF0EE000A87
:1003F00020EE200AF3EE030A20EE200ADFED3B0A8E
:1004000020EE200ABDEEC00A10EE100A00B204A9C8
:1004100021F81400601CC4B2042CE2DB04A802F032
:1004200087FC06B010BDF0EE400A012828D1304903
:100430000978012902D0022916D10AE02D49C9699B
:10044000B1F57A7F02DD0221294A1170B1EE600A0E
:1004500015E02849C96911F57A7F02DA0121244A99
:100460001170B0EE600A0AE02249C969B1F57A7FDD
:1004700002DD02211E4A1170B1EE600A00BF04E0E5
:1004800001211B4A1170B1EE600A704710B519487E
:10049000C069962804DC1748C06910F1960F0CDA81
:1004A0001448D0ED070AF8EEE00AB0EE600ADFED7E
:1004B000040A064800F017FB10BD9FED010AFBE798
:1004C000000000000AD7233C31082C3DB800002072
:1004D000E00900200C98463B1C0000202000002072
:1004E0000C98C63A24000020F6285C3F00007042B9
:1004F00028000020980B002010B50E48D0F81700F7
:1005000000EE100ADFED0C0AB4EEE00AF1EE10FA8C
:100510000DDD00F0EDFE0748D0F8170000EE100AE0
:100520009FED051AC1EE000AB0EE600A10BDB7EEED
:10053000000AFBE7EC0F00200000A04230B50346A4
:1005400005E013F8010B80EA02043E48025D080052
:10055000A1F10101F5D1104630BD70B505460C463C
:1005600000260DB1022C01D8002070BD611EFF22B3
:100570002846FFF7E3FF0646601E285CB04201D123
:100580000120F2E70020F0E770B505460C46002692
:100590000DB1022C00D870BD611EFF222846FFF766
:1005A000CDFF0646601E2E5400BFF4E730B503466B
:1005B00013B94FF6FF7030BD09E013F8014B82EA22
:1005C0000400C0B2204D35F8100080EA2222080055
:1005D000A1F10101F1D11046EDE770B505460C46D9
:1005E00000260DB1022C01D8002070BDA11E1748B5
:1005F00002882846FFF7DAFF0646F1B2A01E285C03
:10060000814206D1601E285CB0EB162F01D101207B
:10061000EBE70020E9E770B505460C4600260DB172
:10062000022C00D870BDA11E084802882846FFF79A
:10063000BDFF0646A01E2E54310A601E295400BF7D
:10064000F0E700006F960008709700082A0000206D
:1006500010B502F04FFE9FEDCA1ADFEDCA0A9FEDFA
:10066000CA0A14231A460321C84800F0EAF99FED8C
:10067000C81ADFEDC80A9FEDC80A0A231A460321EB
:10068000C64800F0DEF99FEDC21ADFEDC20A9FED09
:10069000C20A0A231A460321C14800F0D2F910BD4C
:1006A00010B52DED048BBF4890ED000ADFEDBE0ABA
:1006B00020EE200ADFEDBD0A80EE201AB0EE419A4E
:1006C000DFEDB30AB0EE490AB54800F00CFAB848BD
:1006D000408800EE900AF8EE600A9FEDB61A70EEC0
:1006E000C10A9FEDB51A10EEC10AF0EE408A9FEDE7
:1006F000A80AAC4880ED000AAD48007A01282BD149
:10070000A84890ED010ADFEDA80A20EE200ADFEDEF
:10071000A70A80EE201AB0EE419ADFED9D0AB0EEF6
:10072000490A9E4800F0DFF9A148008800EE900ACF
:10073000F8EE600A9FED9F1A70EEC10AF1EE600AB2
:100740009FED9E1A00EE810AB0EE408A9FED900A5E
:10075000944880ED010A04E09FED8D8A00209849BD
:10076000C8619348407C012801D1012400E00024A5
:10077000B2EE040AB4EEC08AF1EE10FA04DDB2EE75
:10078000040AB0EE408A0AE0BAEE040AB4EEC08A67
:10079000F1EE10FA03D2BAEE040AB0EE408AB3EEDC
:1007A000040AF4EEC08AF1EE10FA04DDB3EE040A96
:1007B000F0EE408A0AE0BBEE040AF4EEC08AF1EEE5
:1007C00010FA03D2BBEE040AF0EE408A7C48BDEE7C
:1007D000C80AC16910EE100A08447949C861084680
:1007E000BDEEE80AC16B10EE100A01447448C16303
:1007F000C069B0F57A7F04DD4FF47A707049C86142
:1008000007E06F48C06910F57A7F02DA6D486C49DD
:10081000C8616B48C06BB0F5967F04DD4FF49671EC
:100820006748C16307E06648C06B10F5967F02DA3F
:1008300065496348C163624AD16BD06902F096FD95
:10084000BDEC048B10BD10B52DED088B84B00446B3
:10085000B0EE409AF0EE609A79EE290A5B4890ED8E
:10086000000AB8EEC00A30EE800ABDEEC00A80ED84
:10087000000A5748406B00EE100A5648D0ED000AB7
:1008800030EE600AB0EE408A5148406B5149086032
:100890005148006818B99FED3E0AB0EE408A4E48B4
:1008A0000068401C4C4908609FED4C0AB4EEC08AB9
:1008B000F1EE10FA06DD9FED3D0A30EE480AB0EE8B
:1008C000408A0EE09FED460AB4EEC08AF1EE10FABF
:1008D00007D29FED360A38EE000AB1EE400AB0EEBC
:1008E000408A9FED400A28EE000AB0EE408A3E485A
:1008F00090ED000AB8EEC00A30EE080ABDEEC00A5C
:1009000080ED000A314890ED000AF8EEC00A364842
:1009100090ED000AB8EEC00A1C4800F0E4F8F0EED2
:10092000408A9FED320A28EE800ABDEEC00A10EE22
:10093000101A08B200F0BBFC18EE900A08F09CFDFB
:1009400041EC1A0B18EE100A08F096FD41EC1B0B57
:100950008DED02AB244800681C49096853EC1B2B41
:10096000CDE9001022A006F0CDF8012C05D1B0EEA3
:10097000680A04B0BDEC088B10BD39EE290AF8E70F
:100980005F700931BD3706360AD7233D1C010020B0
:100990000000000017B7D1388FC2F53C800100205D
:1009A000E401002088050020000000460000B44358
:1009B000E009002000008044103EF83C103E783CE6
:1009C000980B002018FCFFFFD4FEFFFF2C00002036
:1009D000EC0F0020340000203800002000003443D9
:1009E000000034C3610BB641300000200000C84253
:1009F000646966663D25662C7961775F7365743D31
:100A000025642C7961773D25642C74656D703D25D6
:100A1000660D0A00D0ED000AF4EEC00AF1EE10FAFD
:100A200001DD80ED000AD0ED000AB1EE401AF4EECF
:100A3000C10AF1EE10FA03D2F1EE400AC0ED000A4D
:100A400070470366C265816580ED000AC0ED010A4A
:100A500080ED021ADFEDAB1AC0ED0C1ADFEDA91A1A
:100A6000C0ED0D1ADFEDA71AC0ED0E1A704710B5D4
:100A70002DED0A8B84B00446B0EE408AF0EE608A19
:100A8000B0EE419A84ED008AC4ED018A84ED029AA9
:100A90009FED9C0A84ED0C0A9FED9A0A84ED0D0AE5
:100AA0009FED980A84ED0E0A19EE100A08F0E4FC96
:100AB00041EC1A0B18EE900A08F0DEFC41EC1B0B1F
:100AC00018EE100A08F0D8FC41EC1C0B8DED02ABBF
:100AD0008DED00BB53EC1C2B8BA006F013F804B07B
:100AE000BDEC0A8B10BD10B52DED028B0446B0EEA7
:100AF000408AF0EE608A84ED088AC4ED058A38EEFB
:100B0000C80A84ED0B0A94ED140AB5EEC00AF1EEA2
:100B100010FA19D094ED0B0AB5EEC00AF1EE10FAF6
:100B200002DD94ED0B0A03E094ED0B0AB1EE400AEE
:100B3000D4ED140AB4EEE00AF1EE10FA04DD9FEDF4
:100B4000710ABDEC028B10BD94ED150AB5EEC00A1A
:100B5000F1EE10FA17D094ED0B0AB5EEC00AF1EEE3
:100B600010FA02DD94ED0B0A03E094ED0B0AB1EEEE
:100B7000400AD4ED150AB4EEE00AF1EE10FA02D202
:100B80009FED600ADDE7A06D032842D194ED000AD5
:100B9000D4ED0B0A20EE200A84ED0C0A94ED0D0A28
:100BA000D4ED010A94ED0B1A00EE810A84ED0D0AD2
:100BB00094ED0B0AD4ED0A0A30EE600AD4ED020A75
:100BC00020EE200A84ED0E0AD4ED180AF8EE600A31
:100BD000B0EE600A04F13400FFF71CFF94ED0C0A3C
:100BE000D4ED0D0A30EE200AD4ED0E0A30EE200AC4
:100BF00084ED0F0AD4ED170AF8EE600AB0EE600A31
:100C000004F13C00FFF706FF94ED0F0A84ED100A93
:100C100057E0A06D042854D194ED0B0AD4ED0A0AD4
:100C200030EE600AD4ED000A20EE200A84ED0C0AB2
:100C300094ED010AD4ED0B0A20EE200A84ED0D0A92
:100C400094ED0B0AD4ED0A0AB0EE001A01EE600A28
:100C5000D4ED090A30EE200AD4ED020A20EE200A73
:100C600084ED0E0AD4ED180AF8EE600AB0EE600AC0
:100C700004F13400FFF7CEFE94ED0C0AD4ED0D0A1A
:100C800030EE200AD4ED0E0A30EE200A84ED110A6F
:100C900094ED130AD4ED110A30EE200A84ED120A05
:100CA000D4ED170AF8EE600AB0EE600A04F14800CD
:100CB000FFF7B0FE94ED120A84ED130A1BA005F0B5
:100CC00021FF94ED0A0A84ED090A94ED0B0A84EDE4
:100CD0000A0A94ED070A84ED060A94ED080A84EDE9
:100CE000070A94ED040A84ED030A94ED050A84EDE5
:100CF000040AA06D032802D194ED0F0A21E794EDB8
:100D0000120A1EE7000000007069642072657365B6
:100D10007420737563636573732E703D25662C694B
:100D20003D25662C643D25660D0A00000D0A6C6C9D
:100D30006C6C6C6C6C0D0A0070B50224544D2C70F8
:100D4000544D2C70544CB4F81F40544D2D88641BE6
:100D500020B2002801DA444220B2514C24880A2CE7
:100D600002DB00244E4D2C8020B14E4D4C4E368877
:100D700025F81600002103E0141822B24C1CE1B241
:100D80000A2904DA474C34F81140002CF4D192FBC4
:100D9000F1F422B2404CB4F81F40404D2C803E4C40
:100DA000B4F82140404D2D88641B20B2002801DAA0
:100DB000444220B23D4C24880A2C02DB00243B4DE7
:100DC0002C8020B13A4D394E368825F81600002186
:100DD00003E01C1823B24C1CE1B20A2904DA344C9B
:100DE00034F81140002CF4D193FBF1F423B22A4CD7
:100DF000B4F821402C4D2C80274CE478012C04D0F1
:100E0000022C17D0032C41D12AE0234CB4F81F4008
:100E10001444B4F5C86F02DB01241D4D2C701E4C28
:100E2000B4F821401C44B4F5486F02DB0124194D8D
:100E30002C702BE0184CB4F81F40144440F6B83521
:100E4000AC4202DB0124124D2C70134CB4F821404B
:100E50001C44B4F5C85F02DB01240E4D2C7015E074
:100E60000D4CB4F81F40144441F27075AC4202DBE3
:100E70000124074D2C70084CB4F821401C44B4F5F3
:100E8000485F02DB0124034D2C7000BF00BF70BD22
:100E90003C0000203D000020EC0F00203E00002020
:100EA00042000020480200204000002044000020B2
:100EB0005C02002010B50F48407A012803D00D488D
:100EC000407A03280AD1822145F26C2002F0E1F930
:100ED000822145F2556002F0DCF909E0002145F27B
:100EE0006C2002F0D6F9002145F2556002F0D1F9EC
:100EF00010BD0000E009002030B52DED0A8B99B03F
:100F00009FED820AB0EE409AF0EE408AB0EE408A41
:100F10007F48008800F4004080B17D4805780024B7
:100F200005E07C48005D0AA90855601CC4B2AC42CB
:100F300001DA3C2CF5DB0020754908800AA976A06F
:100F400005F0E0FD00240AE00AA8005D202800D199
:100F500009E00AA8005D05A90855601CC4B2142C5C
:100F600001DAAC42F0DB00BF002005A908556AA0F9
:100F700005F0C8FD0AA9081907F042FCB0EE40AA26
:100F8000F0EE60AA51EC1A0B07F0F8FD08EE100A1B
:100F9000601CC4B201E0601CC4B2AC4203DA0AA80F
:100FA000005D2028F7D10AA9081907F029FCB0EE46
:100FB00040AAF0EE60AA51EC1A0B07F0DFFD08EE34
:100FC000900A601CC4B201E0601CC4B2AC4203DAF7
:100FD0000AA8005D2028F7D10AA9081907F010FC1B
:100FE000B0EE40AAF0EE60AA51EC1A0B07F0C6FD75
:100FF00009EE100A19EE100A08F03EFA41EC1A0B3D
:1010000018EE900A08F038FA41EC1B0B18EE100AA3
:1010100008F032FA41EC1C0B8DED02AB8DED00BBFC
:1010200053EC1C2B3EA005F06DFD40A105A805F07A
:1010300053FEA0B9002410E004EBC40101EB04113D
:101040003E4A02EB8100B0EE491AF0EE680AB0EEBB
:10105000480AFFF70CFD601CC4B2042CECDB38A17D
:1010600005A805F039FEA0B9002410E004EBC40186
:1010700001EB0411364A02EB8100B0EE491AF0EEA2
:10108000680AB0EE480AFFF7F2FC601CC4B2042CF8
:10109000ECDB30A105A805F01FFE40B9B0EE491AFF
:1010A000F0EE680AB0EE480A3048FFF7E0FC30A1E5
:1010B00005A805F011FE40B9B0EE491AF0EE680A35
:1010C000B0EE480A3048FFF7D2FC30A105A805F081
:1010D00003FE40B9B0EE491AF0EE680AB0EE480AD5
:1010E0002F48FFF7C4FC2FA105A805F0F5FD40B976
:1010F000B0EE491AF0EE680AB0EE480A2E48FFF743
:10110000B6FC19B0BDEC0A8B30BD00000000000039
:101110005C000020C004002025730D0A00000000C0
:1011200025662C25662C25660D0A00005049445F73
:10113000436861737369735F5370640070060020C5
:101140005049445F436861737369735F506F730004
:10115000000800205049445F47696D62616C5F5030
:10116000697463685F53706400000000080A00201F
:101170005049445F47696D62616C5F506974636890
:101180005F506F7300000000D00A00205049445F98
:1011900047696D62616C5F5961775F5370640000ED
:1011A0006C0A00205049445F47696D62616C5F5969
:1011B00061775F506F730000340B002010B5044658
:1011C00000BF4021454805F09DF90028F9D021468F
:1011D000424805F0E7F810BDF0B589B006460F4665
:1011E00015461C2D01DD09B0F0BD002101AAE81C47
:1011F000115488208DF804008DF805608DF8065094
:10120000002405E0395DE01C01AA1154601CC4B241
:10121000AC42F7DB00240AE001A9E81C085C095D88
:101220000844C1B201AAE81C1154601CC4B2E81CF5
:101230008442F1DB002405E001A9085DFFF7BEFF51
:10124000601CC4B2281D8442F6DB00BFCBE770B53A
:1012500086B006460D46142D01DD06B070BD002493
:101260001AE0204604EBD0714910A4EB410149B9C2
:1012700004EBD071491036F81110C1F3072101AA0F
:10128000115507E0204604EBD071491016F81110F3
:1012900001AA1155601CC4B2B4EB450FE1DB68062E
:1012A000020E01A9A120FFF797FF00BFD5E70C4967
:1012B000B1F900200988491C09B2094B1980094974
:1012C00021F81200704710B5054801780548FFF76E
:1012D000BEFF00200249088010BD0000004400400D
:1012E0004C0000207002002010B501F04DF810BD38
:1012F00010B50121084804F01FFA4021064804F007
:1013000080FB10BD10B50021034804F07AFB0021DA
:10131000014804F011FA10BD0004004010B54FF46C
:101320008061044803F040FD08B9012010BD02208F
:10133000FCE70000000C024070B505460C46A5B164
:10134000012D25D13CB98103324803F049FD00202D
:101350003149087008E0012C06D1A1032D4803F0A3
:101360003DFD01202C49087012E03CB980212B483A
:1013700003F036FD00202A49087008E0012C06D150
:101380008021264803F02AFD01202549087000BF6E
:1013900000BF70BD10B501210020FFF7CDFF012176
:1013A0000846FFF7C9FF10BD10B50446C4B1012CB3
:1013B0002DD11948007838B9A103164803F00EFD65
:1013C0000120154908700AE013480078012806D169
:1013D0008103104803F004FD00200F49087016E057
:1013E0000F48007838B980210C4803F0F7FC012041
:1013F0000B4908700AE00A480078012806D18021CC
:10140000064803F0EDFC00200549087000BF00BF4E
:1014100010BD0000001402404F00002000100240E8
:101420004E0000202DE9F0418AB004460D461646D4
:101430001F46DDF840800121480603F03BFF08A865
:1014400003F098FC0320089002208DF8240000206F
:101450008DF8260003208DF8250001208DF8270047
:1014600008A95A4803F03EFC09220021574803F01E
:10147000C4FC09220121554803F0BFFC00208DF86F
:101480001A0001208DF81B0000208DF81C008DF83B
:101490001D008DF81E008DF81F008DF816808DF848
:1014A00017408DF818608DF81950ADF8147005A923
:1014B000474802F0DEFC00208DF80E008DF80F008A
:1014C00001208DF810000020ADF80400ADF80600F2
:1014D000ADF80800ADF80A00ADF80C0001208DF859
:1014E000110001A802F04FFD01220221384803F04B
:1014F00049F814208DF8000001208DF8010000202B
:101500008DF8020001208DF80300684602F02DFCE2
:101510000AB0BDE8F08110B586B0002401AA002110
:101520002B4802F014FF00BF05E00DF10F00005D35
:1015300028490855641C9DF80E00A042F5DC254999
:10154000019801F0BCFC2349019801F08AFF214970
:10155000019802F03BFB06B010BD2DE9F04186B0CA
:101560000746884615460024019712200290002065
:101570008DF80C008DF80D008DF80E5000BF06E0C0
:1015800018F804100DF10F000155601C84B2AC4234
:10159000F6DB01A90E4802F0E5FD0646002401E055
:1015A000601C84B231460A4802F074FE18B940F655
:1015B000FF708442F4DB40F6FF70844203DB0120BD
:1015C00006B0BDE8F0810020FAE70000000C024000
:1015D000006400405000002000B591B00121880552
:1015E00003F021FE00BF6E4803F04BFA0028FAD149
:1015F0006B4803F01DF902A803F0E5F94FF0006015
:1016000002906848039068480490002005901220DA
:101610000690002007904FF4806008900020099009
:101620000A904FF480700B904FF440300C900020E3
:101630000D900E900F90109002A9594803F09AF95E
:1016400001221021564803F05CFA0121544803F0AE
:10165000CBF944208DF8040000208DF8050001200E
:101660008DF806008DF8070001A802F07EFB11B08E
:1016700000BD10B54D494A4803F060FA50B14C49DD
:10168000474803F02AFA4949454803F081FA464899
:1016900001F017FD10BD00B58FB00121880503F0E2
:1016A000C2FD00BF3E48603803F0EBF90028F9D1D5
:1016B0003B48603803F0BCF8684603F084F94FF00B
:1016C000206000903B4801903B480290002003902E
:1016D0004FF400700490002005904FF48060069055
:1016E00000200790089009904FF400300A900020E5
:1016F0000B9003200C9000200D900E906946284816
:10170000603803F037F9012240212A48001F04F015
:10171000CBFE01212248603803F066F90FB000BD0E
:1017200000B58FB00121480503F07DFD00BF2348BF
:1017300003F0A7F90028FAD1204803F079F86846A9
:1017400003F041F94FF0006000901D4801901D48E2
:1017500002900020039014200490002005904FF484
:101760008060069000200790089009904FF4803028
:101770000A9000200B9003200C9000200D900E90FA
:1017800069460E4803F0F6F8012240210C48001F7C
:1017900004F08AFE0121094803F026F90FB000BDCC
:1017A0008864024004100140980200200088002054
:1017B0000008002004140140AA02002088600240B2
:1017C00004440040AA0400201CB50121084603F08F
:1017D0002AFD0121022003F026FD0121042003F04F
:1017E00022FD0121082003F01EFD0121102003F03D
:1017F0001AFD0121202003F016FD0121402003F0F5
:1018000012FD0121802003F00EFD0121080203F0EA
:101810000AFD684603F0AEFA8020009001208DF8A2
:10182000040000208DF8060003208DF8050001203B
:101830008DF807006946FE4803F054FA4FF48040E3
:1018400000906946FB4803F04DFA684603F092FAAF
:101850001020009002208DF8040000208DF8060072
:1018600003208DF8050002208DF807006946F24834
:1018700003F038FA684603F07DFA4FF48060009078
:1018800000208DF8040003208DF8050001208DF85C
:1018900007006946E94803F025FA684603F06AFA4A
:1018A0004FF47070009002208DF8040000208DF835
:1018B000060003208DF8050000208DF8070069461A
:1018C000DC4803F00FFA684603F054FA4FF4005076
:1018D000009001208DF8040000208DF80600032000
:1018E0008DF8050000208DF807006946D44803F004
:1018F000F9F9684603F03EFA0120009002208DF8C5
:10190000040000208DF8060002208DF805008DF8F7
:1019100007006946CB4803F0E5F9684603F02AFA68
:10192000022000908DF8040000208DF806000220AF
:101930008DF8050001208DF807006946C14803F0C5
:10194000D1F9684603F016FA0420009002208DF8C1
:10195000040000208DF8060002208DF8050001200B
:101960008DF807006946B74803F0BCF9684603F0F4
:1019700001FA0820009002208DF8040000208DF864
:10198000060002208DF8050001208DF80700694649
:10199000AC4803F0A7F9684603F0ECF94FF4805027
:1019A000009002208DF8040000208DF8060002202F
:1019B0008DF8050001208DF8070069469F4803F067
:1019C00091F9684603F0D6F94FF4005000900220D8
:1019D0008DF8040000208DF8060002208DF8050027
:1019E00001208DF807006946944803F07BF96846AA
:1019F00003F0C0F94FF48040009002208DF80400FD
:101A000000208DF8060002208DF8050001208DF8D9
:101A100007006946894803F065F9684603F0AAF9AA
:101A20004FF40040009002208DF8040000208DF853
:101A3000060002208DF8050001208DF80700694698
:101A40007E4803F04FF9684603F094F94FF4806044
:101A5000009002208DF8040001208DF8060003207C
:101A60008DF8050000208DF807006946764803F0E0
:101A700039F9684603F07EF94FF4006000900220C7
:101A80008DF8040001208DF8060003208DF8050074
:101A900000208DF8070069466B4803F023F968467B
:101AA00003F068F94FF48050009002208DF8040094
:101AB00000208DF8060002208DF8050001208DF829
:101AC00007006946604803F00DF9684603F052F9D3
:101AD0000120009002208DF8040000208DF80600FF
:101AE00002208DF8050001208DF80700694657484F
:101AF00003F0F8F8684603F03DF904200090022056
:101B00008DF8040000208DF8060002208DF80500F5
:101B100001208DF8070069464C4803F0E3F8684659
:101B200003F028F92020009002208DF80400002006
:101B30008DF8060002208DF8050001208DF80700C1
:101B40006946424803F0CEF8684603F013F9402096
:101B5000009002208DF8040000208DF8060002207D
:101B60008DF8050001208DF807006946374803F01D
:101B7000B9F8684603F0FEF88020009002208DF846
:101B8000040000208DF8060002208DF805000120D9
:101B90008DF8070069462D4803F0A4F8684603F065
:101BA000E9F84FF48060009001208DF804000020D7
:101BB0008DF8060003208DF8050000208DF8070041
:101BC00069461C4803F08EF8684603F0D3F84FF4DA
:101BD0000070009001208DF8040000208DF80600B0
:101BE00003208DF8050000208DF80700694617488E
:101BF00003F078F8684603F0BDF82020009001203B
:101C00008DF8040000208DF8060003208DF80500F3
:101C100000208DF8070069460A4803F063F868461B
:101C200003F0A8F81020009001208DF804000FE0C8
:101C3000001002400014024000040240000C024068
:101C40000018024000000240001C02400020024038
:101C500000208DF8060003208DF8050000208DF887
:101C600007006946944803F03DF8684603F082F89F
:101C70002020009001208DF8040000208DF806003F
:101C800003208DF8050000208DF8070069468B4879
:101C900003F028F8684603F06DF802200090012058
:101CA0008DF8040000208DF8060003208DF8050053
:101CB00000208DF807006946804803F013F8684655
:101CC00003F058F81020009001208DF80400002047
:101CD0008DF8060003208DF8050000208DF8070020
:101CE0006946764802F0FEFF684603F043F801209B
:101CF00000908DF8040000208DF8060003208DF878
:101D0000050000208DF8070069466C4802F0EAFFE4
:101D1000684603F02FF80820009001208DF8040099
:101D200000208DF8060003208DF8050000208DF8B6
:101D300007006946614802F0D5FF684603F01AF8CB
:101D40000220009001208DF8040000208DF806008C
:101D500003208DF8050000208DF8070069465848DB
:101D600002F0C0FF684603F005F80420009001204F
:101D70008DF8040000208DF8060003208DF8050082
:101D800000208DF8070069464C4802F0ABFF68461A
:101D900002F0F0FF4FF48070009001208DF80400F5
:101DA00000208DF8060003208DF8050000208DF836
:101DB00007006946424802F095FF684602F0DAFFE4
:101DC0004020009001208DF8040000208DF80600CE
:101DD00003208DF8050000208DF80700694639487A
:101DE00002F080FF684602F0C5FF4FF4805000907B
:101DF00001208DF8040000208DF8060003208DF8E6
:101E0000050000208DF8070069462E4802F06AFFA1
:101E1000684602F0AFFF2020009001208DF80400FA
:101E200000208DF8060003208DF8050000208DF8B5
:101E300007006946234802F055FF684602F09AFF02
:101E40001020009001208DF8040000208DF806007D
:101E500003208DF8050000208DF807006946194819
:101E600002F040FF684602F085FF0220009001204A
:101E70008DF8040000208DF8060003208DF8050081
:101E800000208DF8070069460F4802F02BFF6846D6
:101E900002F070FF012000908DF8040000208DF802
:101EA000060003208DF8050000208DF80700694624
:101EB000054802F017FF1CBD000002400008024068
:101EC0000004024000100240001402402DE9F043DB
:101ED0002DED068B89B004460E4615461F4645F289
:101EE0006C20844212D345F6276084420ED801212B
:101EF000084603F0DFF96420B4FBF0F100FB114861
:101F000001224146FD4802F078FF4DE04AF2FC0014
:101F1000844212D34AF6B74084420ED801210420ED
:101F200003F0C8F96420B4FBF0F100FB1148022271
:101F30004146F34802F061FF36E04CF66E00844201
:101F40001ED34DF2804084421AD80121082003F0AC
:101F5000B1F96420B4FBF0F100FB1148B4FBF0F0E0
:101F60000A21B0FBF1F201FB1200032801D1E54880
:101F700000E0E54881460122414602F03EFF13E0C1
:101F8000E248844210D3E24884420DD80121022065
:101F900003F0A1F96420B4FBF0F100FB1148012229
:101FA0004146D94802F029FF00EE106AB8EE400A17
:101FB0009FEDD81AC1EE000A00EE105AB8EE400AA2
:101FC00080EE801A11EE108A404607F055FA41EC77
:101FD000180B9FEDD10B53EC102B06F063FF41EC77
:101FE000190B9FEDCF0B53EC102B07F05BF941EC75
:101FF0001A0B06F0EDFE80B2ADF818000020ADF827
:102000001A00681E07900020ADF820006020ADF88F
:1020100004000120ADF80600ADF810700020ADF806
:10202000140042F21070B4FBF0F0022847D106A968
:10203000400703F0F8FA4FF47A70B4FBF0F00A218D
:10204000B0FBF1F201FB1200012806D002280ED0ED
:10205000032816D0042828D11DE001A94FF08040A4
:1020600003F076FB0821C80603F0FFFC1DE001A980
:102070004FF0804003F0A5FB0821C80603F0FEFCEA
:1020800013E001A94FF0804003F0E8FB0821C806E7
:1020900003F001FD09E001A94FF0804003F044FC8A
:1020A0000821C80603F000FD00BF00BF012188071A
:1020B00003F024FB0121880703F03EFBE0E042F23D
:1020C0001070B4FBF0F0042843D106A9964803F041
:1020D000AAFA4FF47A70B4FBF0F00A21B0FBF1F2E7
:1020E00001FB1200012806D002280DD0032814D0CD
:1020F000042824D11AE001A98B4803F029FB082108
:10210000894803F0B2FC1AE001A9874803F059FBA3
:102110000821854803F0B2FC11E001A9824803F0D0
:102120009DFB0821804803F0B6FC08E001A97E4829
:1021300003F0FAFB08217C4803F0B6FC00BF00BFA7
:102140000121794803F0DAFA0121774803F0F4FA23
:1021500096E042F21070B4FBF0F0052843D106A9D6
:10216000724803F060FA4FF47A70B4FBF0F00A2181
:10217000B0FBF1F201FB1200012806D002280DD0BD
:10218000032814D0042824D11AE001A9674803F0D9
:10219000DFFA0821654803F068FC1AE001A96348EA
:1021A00003F00FFB0821614803F068FC11E001A96E
:1021B0005E4803F053FB08215C4803F06CFC08E028
:1021C00001A95A4803F0B0FB0821584803F06CFC01
:1021D00000BF00BF0121554803F090FA0121534888
:1021E00003F0AAFA4CE042F21070B4FBF0F00828B9
:1021F00046D106A94E4803F016FA4FF47A70B4FBA4
:10220000F0F00A21B0FBF1F201FB1200012806D028
:1022100002280DD0032814D0042824D11AE001A9E3
:10222000434803F095FA0821414803F01EFC1AE0E8
:1022300001A93F4803F0C5FA08213D4803F01EFC00
:1022400011E001A93A4803F009FB0821C80603F090
:1022500022FC08E001A9364803F066FB0821344857
:1022600003F022FC00BF00BF0121314803F046FA11
:1022700001212F4803F060FA01212D4803F04DFEA3
:1022800009B0BDEC068BBDE8F0837FB504460D4672
:102290002848009028480190284802902848039038
:1022A00042F21070B4FBF0F0022806D0042815D0DA
:1022B000052847D0082865D154E04FF47A70B4FB64
:1022C000F0F00A21B0FBF1F301FB1300401E5DF8B2
:1022D000202029464FF08040904753E04FF47A7019
:1022E000B4FBF0F00A21B0FBF1F301FB1300401E38
:1022F0005DF8202029460C48904743E0000002404A
:10230000000C0240001C024000200240FD3D010084
:10231000B249010000C8AF470000000000408F40F4
:10232000000000000000F03F00080040000C0040EA
:1023300000040140035A0008075A00080B5A00081D
:102340000F5A00084FF47A70B4FBF0F00A21B0FB8A
:10235000F1F301FB1300401E5DF8202029462348BD
:1023600090470FE04FF47A70B4FBF0F00A21B0FB15
:10237000F1F301FB1300401E5DF8202029461C48A4
:10238000904700BF00BF7FBD00B589B0012102208A
:1023900002F090FF02220421164802F02EFDFF20D9
:1023A000ADF818000020ADF81A007F20079000203B
:1023B000ADF8200006A9104803F035F96020ADF80B
:1023C00004000120ADF806000220ADF8100001A9BC
:1023D000094803F0BDF90821074803F046FB012135
:1023E000054803F08BF909B000BD0000000C004067
:1023F00000040140000402400004004010B52DED2F
:10240000068B84B004460121102002F053FF00EE39
:10241000104AB8EE400ADFED7F0A20EE200A10EEE7
:10242000101A084607F028F841EC1A0BB0EE4A0AD9
:10243000F0EE6A0A06F070FAB0EE409AF0EE609A9A
:102440009FED750B53EC102B51EC190B06F02AFF86
:1024500041EC180B06F0BCFC80B2ADF80400002083
:10246000ADF8060000EE104AB8EE400ADFED690A4A
:1024700020EE200A10EE101A084606F0FDFF41EC8F
:102480001A0BB0EE4A0AF0EE6A0A06F045FAB0EE10
:10249000409AF0EE609A9FED600B53EC102B51ECDC
:1024A000190B06F0FFFE41EC180B06F091FC80B210
:1024B00002900020ADF80C0001A9594803F0B3F8D0
:1024C00001221146564803F04FFD36208DF80000DA
:1024D00001208DF8010003208DF8020001208DF805
:1024E0000300684601F041FC01214D4803F024F946
:1024F00004B0BDEC068B10BD10B50121484803F0B7
:102500004AFD01287DD101F0D1FBFEF715FC4548BD
:102510000068401C4349086043480068401C424929
:10252000086042480068401C40490860084600684E
:102530000F2817D900203E49488200213C480174E9
:10254000417400203A494881002139488181C18184
:102550004FF480603649088048808880C880002019
:102560000872487232480088B0F5B67F20DB3048E8
:10257000008840F2946188421ADC2D484088B0F50A
:10258000B67F15DB2A484088884211DC28488088BD
:10259000B0F5B67F0CDB26488088884208DC2448EA
:1025A000C088B0F5B67F03DB2148C088884219DDBA
:1025B00000201F49488200211D48017441740020F9
:1025C0001B49488100211A488181C1814FF48060F4
:1025D0001749088048808880C880002008724872A7
:1025E00001F038FB00F0CCFA0F4800680521B0FB81
:1025F000F1F201FB120020B9FDF774FEFEF750F86E
:1026000000E001E0FEF756FC0121054803F0D4FC90
:1026100010BD000000C8AF47000000000000F03F00
:102620000010004048000020580000207C000020DE
:10263000E009002000BF704770B504460D4600BF9A
:102640004021FE4803F05EFF0028F9D0E1B2FB48CC
:1026500003F0A8FE204670BD00B587B00121102010
:1026600002F039FE07221146F54802F0C6FB05A824
:1026700002F080FB8020059002208DF818000020D9
:102680008DF81A0003208DF8190001208DF81B0029
:1026900005A9EB4802F026FBEA4803F069FDEA4889
:1026A00001900020ADF80800ADF80A004FF48060FA
:1026B000ADF80C000420ADF80E000020ADF81000BD
:1026C00001A9E04803F0BBFD0121DE4803F03FFE15
:1026D00001224021DB4803F0E7FE07B000BD10B542
:1026E00088B004460121480402F0E4FD07220521D8
:1026F000D64802F082FB07220621D44802F07DFB77
:1027000006A802F037FB6020069002208DF81C001E
:1027100000208DF81E0003208DF81D0000208DF88C
:102720001F0006A9C94802F0DDFAC94803F020FDE0
:1027300002940020ADF80C00ADF80E00ADF81000CA
:102740000C20ADF812000020ADF8140002A9C0481A
:1027500003F075FD0121BE4803F0F9FD4021BC489E
:1027600003F0DDFE012240F22441B94803F0A5FE4A
:1027700026208DF8040003208DF8050001208DF837
:1027800006008DF8070001A801F0EFFA08B010BDAF
:1027900010B588B004460121880402F08BFD0722A1
:1027A0000821AA4802F029FB07220921A74802F0C4
:1027B00024FB06A802F0DEFA4FF4407006900220D7
:1027C0008DF81C0000208DF81E0003208DF81D00E0
:1027D00001208DF81F0006A99C4802F083FA974853
:1027E00003F0C6FC02940020ADF80C00ADF80E001A
:1027F000ADF810000C20ADF812000020ADF8140068
:1028000002A98E4803F01BFD01218C4803F09FFDB7
:1028100040218A4803F083FE012240F22551874877
:1028200003F04BFE27208DF8040003208DF80500EF
:1028300002208DF8060001208DF8070001A801F0A4
:1028400094FA08B010BD10B588B0044601212020CC
:1028500002F041FD082209217E4802F0CEFA08224A
:102860000E217C4802F0C9FA06A802F083FA4FF460
:102870008440069002208DF81C0000208DF81E0078
:1028800003208DF81D0000208DF81F0006A9714857
:1028900002F028FA704803F06BFC02940020ADF8B7
:1028A0000C00ADF80E00ADF810000C20ADF81200D1
:1028B0000020ADF8140002A9674803F0C0FC012114
:1028C000654803F044FD4021634803F028FE0122DF
:1028D00040F22441604803F0F0FD47208DF80400E9
:1028E00003208DF805008DF8060001208DF8070003
:1028F00001A801F03AFA08B010BD10B540F2255118
:102900004E4803F015FE20B34C4803F04FFDC4B20F
:102910005248008800F40040D8B95048008800F4BC
:10292000804070B10A2C03D000204C49088022E07E
:102930004A48008840F4004048490880FEF7DCFA25
:1029400019E00D2C06D14548008840F480404349E9
:10295000088010E041480088C0F30D0040490C5445
:102960003E480088401C3D49088008460088C7282A
:1029700001DD0020088010BD10B540F2244136482A
:1029800003F0D6FDE8B1344800883348001D0088C4
:102990000021344802F028F800F0BAFE32493148EC
:1029A00002F09BF800BF2F4802F06BF80028FAD124
:1029B0004FF400712B4802F038F80121294802F049
:1029C00013F810BD0CB5002100EE901A00EE101A9D
:1029D000002005E02549095C0DF80010411CC8B233
:1029E0000828F7DB9DF80010FF2945D19DF8071056
:1029F000FE2941D19DF80210090209B29DF801207B
:102A0000114300EE901A9DF80410090209B29DF8D6
:102A10000320114300EE101AB8EEE01ADFED141A8D
:102A200081EE212A134981ED012AB8EEC01ADFEDAB
:102A3000101A81EE212A81ED002A26E0004800408C
:102A40000004024000100140A0860100000C02407A
:102A50000044004000180240001401405C000020C7
:102A6000C00400202864024000080010AA040020CE
:102A70000000C842880500209FED171A174981ED14
:102A8000011A9FED151A81ED001A0CBD10B540F228
:102A90002441134803F04CFDE0B111480088104870
:102AA000001D008800210F4801F09EFFFFF78AFFFC
:102AB0000D490C4802F011F800BF0A4801F0E1FF8F
:102AC0000028FAD11421074801F0AFFF0121054881
:102AD00001F08AFF10BD0000000000008805002002
:102AE00000440040886002400008002000B587B024
:102AF0000121082002F0DEFB0121802002F093FB7F
:102B000002220A21664802F078F902220B21644869
:102B100002F073F90020ADF81000ADF8120040F299
:102B2000CF7005900020ADF8180004A95D4802F0B0
:102B30007AFD00231A4603215A4803F0E8FA01A857
:102B400003F07FF90620ADF80C0001A9554803F009
:102B500041F90121534803F01BFA01221146514863
:102B600003F002FA01214F4802F0E6FD07B000BD74
:102B70004C492431086800214A4A243211607047C8
:102B800000B5FFF7F5FF484908600968C8225143BE
:102B9000C1EB011189004FF4FA7291FBF2F0C117F9
:102BA00000EB91718910404A91601046007C022828
:102BB00013D1104690ED000AB8EEC00ADFED3B0AD3
:102BC00060EE200A9FED3A1A80EE810AD0ED010AEC
:102BD00030EE200A80ED010A16E03348007C01281F
:102BE00012D1314890ED000AB8EEC00ADFED2F0A8D
:102BF00060EE200A9FED2E1A80EE810AD0ED010AC8
:102C000030EEC00A80ED010A00BD10B50446002C6C
:102C10000ADA61424AF2FC00FFF737FB00214AF270
:102C2000E540FFF732FB16E0002C0ADD00214AF2F6
:102C3000FC00FFF72AFB21464AF2E540FFF725FB9F
:102C400009E000214AF2FC00FFF71FFB00214AF2D5
:102C5000E540FFF71AFB10BD10B5FFF747FF9FEDEA
:102C6000151ADFED140ABAEE040A4FF4FA6341F2C2
:102C7000941203211048FDF7E4FE022341F294125E
:102C800044F620614AF2FC00FFF720F9022341F2EA
:102C9000941244F620614AF2E540FFF717F910BD9F
:102CA000001C0240000C0040940500200000B443CA
:102CB0000000FA4300000000A805002010B5002421
:102CC00033E004EBC40101EB0411B84A02EB8100CC
:102CD0009FEDB71ADFEDB70A9FEDB70A40F6B8339C
:102CE0001A460321FDF7ADFE04EBC40101EB04110C
:102CF000B24A02EB81009FEDAE1ADFEDB10AB7EEEA
:102D0000080A4FF47A531A460321FDF79AFE002071
:102D100004EB8401AB4A02EB8101C86004EB84013F
:102D200002EB81010861601CC4B2042CC9DB10BD38
:102D30007CB505460126002494E035F81400E0BB7C
:102D4000DEBB04EB84019F4A02EB810191ED041A82
:102D5000B8EEC11AF0EE410A04EB840102EB8101E6
:102D600091ED031AB8EEC11AB0EE410A04EBC401AA
:102D700001EB04118D4A02EB8100FDF7B4FE04EB78
:102D8000C40101EB0411894A02EB810191ED0F1A94
:102D9000F0EE410A04EB84018A4A02EB8101B1F9A9
:102DA000021001EE101AB8EEC11AB0EE410A04EB9F
:102DB000C40101EB0411814A00E00CE002EB810048
:102DC000FDF791FEBDEEC00A10EE100A00B27E497A
:102DD00021F8140031E035F9141001EE101AB8EEA4
:102DE000C11AF0EE410A04EB8401764A02EB81013C
:102DF000B1F9021001EE101AB8EEC11AB0EE410A94
:102E000004EBC40101EB04116C4A02EB8100FDF7F5
:102E10006AFEBDEEC00A10EE100A00B26A4921F83F
:102E2000140004EB8400674901EB8000C06804EBE8
:102E30008401644A02EB81010861FDF75DFB624891
:102E400030F9140000EE900AF8EEE00A20EE200AB5
:102E5000BDEEC00A10EE100A00B25B4921F8140062
:102E6000601CC4B2042CFFF668AF57480088000A03
:102E70008DF80000544800788DF8010052484088D1
:102E8000000A8DF80200504880788DF803004E4803
:102E90008088000A8DF804004B4800798DF8050001
:102EA0004948C088000A8DF80600474880798DF8A7
:102EB0000700082269469001FEF74FFB7CBD30B544
:102EC00000BFA0F20123042B6ED203EB83033D4C21
:102ED00034F82340A0F2012303EB8303394D05EBC3
:102EE00083031C814B780C7843EA0424A0F201236D
:102EF00003EB830325F82340CB788C7843EA042343
:102F00001CB2A0F2012303EB830305EB83035C8077
:102F10004B790C7943EA04231CB2A0F2012303EBA2
:102F2000830305EB83039C808C79A0F2012303EBE0
:102F3000830305EB83039C71A0F2012303EB83035E
:102F40002C4634F82340A0F2012303EB830305EB66
:102F500083031B89E31A1AB241F64C539A4203DDEC
:102F6000A2F500531AB205E0184B9A4202DA02F5B4
:102F700000531AB2164B1B6803B90022144B1B688E
:102F80005B1C134C2360A0F2012303EB83030D4C65
:102F900004EB8303DB689C18A0F2012303EB83039B
:102FA000084D05EB8303DC6030BD00000008002005
:102FB0000000000082A8FB370AD7233D70060020DE
:102FC000CDCCCC3D9009002064000020B4E2FFFF8E
:102FD0006C00002010B5FFF73FFBFEF7FDFA10BDB7
:102FE000014697480088084030B1964800788843E9
:102FF000944A1070012070470020FCE7002027E071
:103000009149498A01228240114061B98F49498A18
:1030100001228240114031B101218140884A128849
:103020001143874A118088494A8A012181400A4018
:1030300062B18649498A01228240114031B9012199
:103040008140834A12881143814A1180411CC8B2D1
:103050000728D5DD7C49097C51B97C49097C0129C7
:1030600006D17849097841F00101764A11700CE0E7
:103070007549097C012908D17449097C29B971492C
:10308000097841F002016F4A11706F49097C51B90A
:103090006E49097C012906D16A49097841F001018C
:1030A000684A11700CE06849097C012908D1674918
:1030B000097C29B96349097841F00201614A11701C
:1030C000704710B5044604B910BD14225F495E482C
:1030D00003F0BCFD2078617840EA0120C0F30A00CB
:1030E0005A4908806078C010A17840EA4110C0F3C6
:1030F0000A0056494880A0788011E17840EA8100B2
:10310000217940EA8120C0F30A0050498880207963
:103110004010617940EAC110C0F30A004B49C880F1
:1031200060790011800808726079C0F3011048725C
:10313000A079E17940EA012000B244494881207A2F
:10314000617A40EA012001B240488181A07AE17AA7
:1031500040EA012001B23D48C181217B0174617BBD
:103160004174A07B39494882FFF748FF0020394964
:1031700008600120FFF734FF012804D136480078A9
:10318000401C354908703148007C012805D133487E
:103190000068401C3149086002E000202F490860A7
:1031A0002E480068642803DB01202D49087002E0E6
:1031B00000202B49087000BF86E7B0EE401AA0F54A
:1031C000B67100EE101AB8EEC00A70EEC11A60EEC9
:1031D000211A9FED242A81EE820A30EE010A7047FF
:1031E000024601209040164B1B88184050B101291F
:1031F00008D101209040124B1B8883431048038064
:103200000120704701209040114B1B88184050B19D
:10321000022908D1012090400D4B1B8883430C48A4
:1032200003800120EDE70020EBE701460748408AD4
:1032300001228A40104008B1012070470020FCE7BD
:103240007000002074000020F4090020E009002034
:10325000720000207C000020000000207800002088
:10326000010000200000A54410B5044640F2CF71D3
:103270002046FFF70AF84FF4FA6003F09DFB4FF485
:103280007A712046FFF701F84FF47A7003F094FB4F
:1032900010BD70B505460C46B4F57A7F01D340F2F7
:1032A000E73404F57A712846FEF7EFFF70BD10B5DC
:1032B00040F2CF7145F26C20FEF7E7FF40F2CF718C
:1032C00045F25560FEF7E1FF4FF4FA6003F074FB3E
:1032D0004FF47A7145F26C20FEF7D7FF4FF47A7104
:1032E00045F25560FEF7D1FF4FF47A7003F064FBAE
:1032F00010BD000010B59FEDBB1ADFEDBA0AB1EEAC
:10330000040A41F288331A460321B748FDF799FBB6
:103310009FEDB41ADFEDB30A9FEDB40A4FF47A7350
:103320001A460321B248FDF78CFB9FEDAE1ADFED84
:10333000AD0AB1EE040A42F210731A460321AD48F9
:10334000FDF77FFB9FEDA71ADFEDA60A9FEDA70A09
:103350004FF4FA631A460321A748FDF772FB0020D9
:10336000A649C8610021A548C16310BD3EB5044609
:103370000D46A248D0ED020AF8EEE00AB0EE600A6F
:1033800000EE904AF8EEE00A9748FDF7ACFB96484D
:1033900090ED0F1AF0EE410A9848B0F9180001EECE
:1033A000100AB8EEC11AB0EE410A9148FDF79BFB36
:1033B000BDEEC00A10EE100A00B2ADF808008F484A
:1033C000D0ED0A0AF8EEE00AB0EE600A00EE905A7C
:1033D000F8EEE00A8748FDF786FB864890ED0F1A65
:1033E000F0EE410A8548B0F9380001EE100AB8EE57
:1033F000C11AB0EE410A8048FDF775FBBDEEC00A68
:1034000010EE100A00B2ADF80A00BDF808007C49C1
:1034100008807A48008900B24880BDF80800000A98
:103420008DF80000BDF80800C0B28DF80100BDF8AD
:103430000A00000A8DF80200BDF80A00C0B28DF83B
:10344000030000208DF804008DF805008DF80600BB
:103450008DF807000822694640F2FF10FEF77DF85C
:103460003EBD70B50A4600BFA0F20524022C7DD2F5
:10347000644C24685CB90024604D6C8000255F4C6E
:103480006584614C5D4DAC6000255C4CA5625D4C73
:103490002468641C5B4D2C605478157844EA05253B
:1034A000A0F20524554E06EB44142580D478957877
:1034B00044EA052425B2A0F2052406EB4414A580B5
:1034C0005479157944EA052425B2A0F2052406EBC7
:1034D0004414E580A0F20524354605EB4414A568A4
:1034E000A0F2052406EB44142561A0F2052435461C
:1034F00005EB441494ED030AA0F2052405EB4414F3
:1035000084ED050AA0F2052405EB44142588A0F2F9
:10351000052406EB441464882C1B21B2A0F2052478
:10352000354605EB44142588A0F2052406EB441427
:10353000658041F64C54A14205DD5C1E23B2A1F525
:10354000005421B207E0314CA14204DA5C1C23B2E2
:1035500001F5005421B2A0F20524284D05EB4414D6
:10356000A4686518A0F20524244E00E039E006EBBB
:103570004414A56000EE101AB8EEC00ADFED240A6C
:1035800020EE200A9FED231AC0EE010AA0F20524C6
:10359000354605EB441494ED030A30EE800AA0F2A0
:1035A000052405EB441484ED030AA0F2052405EB81
:1035B000441494ED030AA0F2052405EB4414D4ED61
:1035C000050A30EE600ADFED140A20EE200ABDEE97
:1035D000C00A10EE104A25B2A0F2052406EB4414EE
:1035E000258370BD00000000340B0020DD2466BF81
:1035F0006C0A0020D00A0020080A0020980B002046
:103600008000002084000020A1F0FFFFB4E2FFFF53
:103610000000B4430000004600007A4410B50020CA
:10362000FC49086081F8060481F8070481F8080461
:1036300081F80904C1F80C04C1F81004FEF72BF856
:1036400010BD70B504460D46092D33D2DFE805F0F4
:1036500032050B0F161D22272B00EF482168016051
:103660006168416026E0EC482178017222E0EA4876
:10367000093021680160A18881801BE01422214665
:10368000E5480F3003F0E2FA14E0E3482188A0F89F
:1036900023100FE0E048217880F825100AE0DE488A
:1036A0002188C18406E010222146DB48283003F03F
:1036B000CDFA00BF00BFD748D0F80C04401CD54954
:1036C000C1F80C04D548C07891F80914401A0128B3
:1036D0000FD0D248C078CF4991F80914401A00F5AC
:1036E000807030B1CB48D0F81004401CC949C1F8F3
:1036F0001004C8488088032808D1C94800780028E9
:1037000004DDC7480078401EC5490870002070BD20
:1037100070B5C44801F08BF9C0F50070BD49086070
:1037200008460068002803DABFA003F0EBF970BD7B
:10373000B848C5490268801D03F088FAB54890F87A
:103740000604012871D1B34890F8070401286DD10F
:1037500000241AE0AF480068A0420CDA0120AD490D
:1037600081F8070481F80604084690F8080420440C
:1037700081F8080410E0A748801D015D801F90F8C3
:1037800008040219B1488154641CA24890F8080446
:10379000C0F10500A042DDD800BF9E4890F80804A3
:1037A000C0F10500A04203D100209A4981F8070426
:1037B0009A48C078974981F8090498499548D0F803
:1037C00006220A6090F80A02087192480168A01C5B
:1037D00081420AD201208F4981F80604084690F8F8
:1037E0000804204481F808041EE08A48801D015D19
:1037F000801F90F80804021994488154A0F50070C5
:10380000611C415C801F90F80824601C02448F48B2
:103810008154804890F8080401197E48801D0144B5
:10382000801F09888180A41C1AE06DE06DE0794852
:103830000068A0420ADA0120764981F806040846A9
:1038400090F80804204481F8080413E07148801DB2
:10385000015D801F90F8080402197C488154641CA3
:103860006E48B0F80100C01D6A4991F80814401A6A
:10387000A042DCD800BF18E066480068A0420ADA1F
:103880000120644981F80604084690F808042044A1
:1038900081F8080413E05F48801D015D801F90F8E7
:1038A0000804021969488154641C5C48B0F801009E
:1038B0000930584991F80814401AA042DCD800BFDA
:1038C0005648B0F801000930524991F80814401ADE
:1038D000A04203D100204F4981F8060405214F483A
:1038E000FCF73BFE00287DD04C48B0F8010000F109
:1038F00009015648FCF771FE002873D045488188BD
:1039000000F20D20FFF79DFE6CE0002418E0414816
:103910000068A0420ADA01203E4981F80604084600
:1039200090F80804204481F8080413E03948801D09
:10393000015D801F90F80804021944488154641CFA
:103940003648B0F80100C01D324991F80814401AF9
:10395000A042DCD800BF18E02E480068A0420ADA76
:1039600001202C4981F80604084690F808042044F8
:1039700081F8080413E02748801D015D801F90F83E
:103980000804021931488154641C2448B0F801002D
:103990000930204991F80814401AA042DCD800BF31
:1039A0001E48B0F8010009301A4991F80814401A6D
:1039B000A04203D10020174981F8060405211748C9
:1039C000FCF7CBFD70B11548B0F8010000F109011A
:1039D0001E48FCF702FE28B10E48818800F20D2037
:1039E000FFF72FFE0024C9E00A48801D005DA528CE
:1039F00073D1002533E0601906490968884227DD44
:103A00000120044981F8070481F8060481F808546C
:103A100027E00000D80B0020EC0F002089000020D8
:103A200000000020286402400D0A4572726F722067
:103A3000696E206A756467655F646174615F67655C
:103A4000742E0D0A0D0A0000AA020020DE0D0020CF
:103A500061194F48415C00F5007041556D1C052D02
:103A6000C9D300BF05214B48FCF777FD88B1052D70
:103A70000FD14948C0784649891F81F80904464951
:103A80004348801FD0F806220A6090F80A020871A5
:103A900000E079E06019801C3D49891F096888426F
:103AA00007D901203A49891F81F8060481F8085492
:103AB0006AE061193648415C364841556019401C3E
:103AC00033490A5C3348691C425461193048014447
:103AD000801F09888180AD1C14E04DE060192C49DD
:103AE000891F0968884207DD01202949891F81F85B
:103AF000060481F808540BE061192548415C25480B
:103B000041556D1C2448B0F80100C01DA842E5D8FD
:103B100000BF13E060191E49891F0968884207DD4C
:103B200001201B49891F81F8060481F808540BE025
:103B300061191748415C174841556D1C1648B0F88B
:103B400001000930A842E5D800BF05211248FCF762
:103B500004FD80B11048B0F8010000F109010D48E2
:103B6000FCF73BFD38B10A48801F818800F20D2028
:103B7000FFF767FD00E000E000BF641C0448801F01
:103B80000068A0423FF730AF00BF00BFCFE50000A4
:103B9000DE0B0020DE0D00208900002010B54FF460
:103BA0000051094801F01CF910BD10B50446012C64
:103BB00004D14103044801F011F904E04FF400512D
:103BC000014801F00DF910BD0018024010B5024681
:103BD00040F259239A4200D010BD4B780C7843EA4A
:103BE00004231BB21A4C2380CB788C7843EA04233D
:103BF0001BB2174C63804B790C7943EA0423144CB5
:103C0000A380002011E0062303EB40035B1CCB5C88
:103C1000062404EB40040C5D43EA04231CB20C4B65
:103C20009B1D23F81040431CD8B20628EBDBCB7C4D
:103C30008C7C43EA0423C3F30D03054C6382CB7CE5
:103C40008C7C43EA04239B0B014CA38200BFC3E797
:103C500024100020012080F3138800BF00BFBFF3B1
:103C60004F8F0748006800F4E06006490843001DD4
:103C700003490860BFF34F8F00BF00BFFEE700009D
:103C80000CED00E00000FA0570B505460C4645F263
:103C9000555002F00FFE284602F00FFE204602F0BB
:103CA0000FFE02F010FE02F013FE70BD10B502F020
:103CB0000AFE10BDF8B506460C4615460121C8029D
:103CC00001F0F8FA15480078304014490870284689
:103CD00002F083FC204602F089FC1048007802F0D4
:103CE000A0FC00208DF8000002208DF801000320C8
:103CF0008DF8020001208DF80300684600F035F8C9
:103D000002F09EFC02F083FCF8BD10B50348007879
:103D100002F081FC02F094FC10BD00008E00002037
:103D20000948804709480047FEE7FEE7FEE7FEE74F
:103D3000FEE7FEE7FEE7FEE7FEE7FEE7044805498B
:103D4000054A064B7047000081670008AD01000876
:103D5000A0100020A0160020A0120020A012002019
:103D600032490143324A1160704770B50021002387
:103D70000F22C4781CB32E4C246804F4E064C4F50C
:103D8000E064C4F30721C1F10404E3B20A414478BA
:103D90009C40E1B28478144021430C07210E254C4D
:103DA00005786155047804F01F050124AC400578BE
:103DB0006D11AD0005F1E025C5F8004109E004787A
:103DC00004F01F050124AC401B4D0678761145F820
:103DD000264070BD194A0A400243154B1B1F1A604A
:103DE000704739B1124A121D12680243104B1B1D55
:103DF0001A6006E00E4A121D126882430C4B1B1D0E
:103E00001A607047042808D14FF0E021096941F099
:103E100004014FF0E022116107E04FF0E021096951
:103E200021F004014FF0E022116170470000FA0513
:103E30000CED00E000E400E080E100E080FFFF1F07
:103E400010B50446FE48844209D10121480601F01C
:103E500086FA00214FF0007001F081FA08E001219C
:103E6000880601F07CFA00214FF0806001F077FABB
:103E700010BD30B5024600200023146824F002046F
:103E80001460146844F00104146000E05B1C546882
:103E900004F001041CB94FF6FF74A342F6D1546834
:103EA00004F001040CB900206CE08C79012C04D1E1
:103EB000146844F08004146003E0146824F0800463
:103EC0001460CC79012C04D1146844F040041460CF
:103ED00003E0146824F0400414600C7A012C04D12F
:103EE000146844F02004146003E0146824F02004F3
:103EF00014604C7A012C04D1146844F0100414604E
:103F000003E0146824F0100414608C7A012C04D1AE
:103F1000146844F00804146003E0146824F00804F2
:103F20001460CC7A012C04D1146844F004041460A9
:103F300003E0146824F0040414608C78A407CD789E
:103F400044EA05640D7944EA05444D7944EA055490
:103F50000D886D1E2C43D461146824F00104146094
:103F6000002300E05B1C546804F001041CB14FF610
:103F7000FF74A342F6D1546804F001040CB1002090
:103F800000E0012030BD10B50021837A012202FA41
:103F900003F1AC4A126842F00102AA4B1A60A94A26
:103FA0001C3212688A43A74B1C331A60027BCAB9C1
:103FB000A44A0C3212688A43A24B0C331A6042881E
:103FC000C38842EA03439F4A4032847A42F834303D
:103FD0000288838842EA03439A4A4032847A02EB99
:103FE000C4025360027B012A19D1964A0C3212682E
:103FF0000A43944B0C331A604288038842EA034315
:10400000904A4032847A42F83430C288838842EA47
:1040100003438C4A4032847A02EBC4025360C27A72
:104020003AB9884A121D12688A43864B1B1D1A60D2
:1040300006E0844A121D12680A43824B1B1D1A6057
:10404000028932B97F4A143212688A437D4B143395
:104050001A600289012A06D17A4A143212680A4388
:10406000784B14331A60427B012A06D1754A1C3200
:1040700012680A43734B1C331A60724A126822F0AA
:104080000102704B1A6010BD00218171C171017273
:1040900041728172C1728170C1700321017102216C
:1040A00041710121018070476649096841F00101B1
:1040B000644A11601146096843F60E729143614AE1
:1040C00011601146096841EA002111601146096832
:1040D00021F001011160704721B1026842F4803281
:1040E000026003E0026822F4803202607047E1B1AE
:1040F000026842F0800202604FF4C272125842F429
:1041000080734FF4C27213504FF4CA72125842F4C3
:1041100080734FF4CA7213504FF4D272125842F4A3
:1041200080734FF4D27213501BE0026822F08002B9
:1041300002604FF4C272125822F480734FF4C272BC
:1041400013504FF4CA72125822F480734FF4CA729B
:1041500013504FF4D272125822F480734FF4D2727B
:104160001350704710B502460020936803F0806337
:10417000B3F1806F00D110E0936803F00063B3F1F6
:10418000006F01D1012008E0936803F08053B3F180
:10419000805F01D1022000E00420042879D002F5DC
:1041A000C07303EB00131B6803F0010402F5C07336
:1041B00003EB00131C600B7A7BB94B7A0C8843EA43
:1041C000445302F5C07404EB00142468234302F541
:1041D000C07404EB0014236010E00B7A4C6843EACF
:1041E000C4034C7A234302F5C07404EB0014246822
:1041F000234302F5C07404EB001423608B7A03F0B0
:104200000F038B7202F5C07303EB00135B6823F09E
:104210000F0402F5C07303EB00135C6002F5C0737A
:1042200003EB00135B688C7A234302F5C07404EB44
:10423000001463608B7B1C064B7B44EA034403E061
:1042400000640040006600400B7B44EA0323CC7A04
:10425000234302F5C07404EB0014A3608B7C1C069E
:104260004B7C44EA03440B7C44EA0323CC7B23438A
:1042700002F5C07404EB0014E36002F5C07303EBB5
:1042800000131B6843F0010402F5C07303EB001335
:104290001C6010BD10B50246002321B1012907D0D2
:1042A00002290FD109E09068F94C00EA04030BE001
:1042B0009068F84C00EA040306E09068F64C00EAC7
:1042C000040301E0002300BF00BFF44C181BA3420D
:1042D00016D007DC83B16FF08060184470B10228FB
:1042E00018D111E0B0F5007F10D0ED4C204448B15A
:1042F000B0F5003F0ED10BE002230DE000230BE0F0
:10430000002309E0002307E0012305E0012303E087
:10431000012301E0002300BF00BFD8B210BD21B1CE
:10432000012907D002290FD109E0826842F08002FA
:1043300082600AE0826842F40042826005E082689E
:1043400042F40002826000E000BF00BF704710B579
:1043500000F5D87303EB01131B6803F00403137219
:10436000137A53B900F5D87303EB01131B6840F2BD
:10437000FF7404EA5353136009E000F5D87303EBAC
:1043800001131B686FF0604404EAD303536000F527
:10439000D87303EB01131B6803F00203537200F59B
:1043A000D87303EB01135B6803F00F03937200F5FE
:1043B000D87303EB01135B681B0AD37400F5D87341
:1043C00003EB01139B68D37200F5D87303EB011361
:1043D0009B681C0A147300F5D87303EB01139B68E8
:1043E0001C0C547300F5D87303EB01139B681B0E70
:1043F000937300F5D87303EB0113DB68D37300F5F7
:10440000D87303EB0113DB681C0A147400F5D8732E
:1044100003EB0113DB681C0C547400F5D87303EB39
:104420000113DB681B0E937421B9C36843F02003AA
:10443000C36003E0036943F02003036110BD21B9A9
:10444000C26842F02002C26003E0026942F020022A
:10445000026170470246002019B9D36803F00300D7
:1044600006E0012903D1136903F0030000E00020F6
:10447000704710B502460B4600204FF6FF71BBB9DE
:10448000146824F0020444F00104146000E0491EA2
:10449000546804F00304012C01D00029F7D15468BA
:1044A00004F00304012C01D0002032E0012030E0B0
:1044B000012B13D1146824F00304146000E0491E9A
:1044C000546804F003040CB10029F8D1546804F0D6
:1044D00003040CB100201CE001201AE0022B17D1CC
:1044E000146824F0010444F00204146000E0491E42
:1044F000546804F00304022C01D00029F7D1546859
:1045000004F00304022C01D0002002E0012000E0AE
:10451000002010BD014600200A6822F0010242F08E
:1045200002020A604A6802F00302022A00D1012056
:10453000704701464FF6FF7200200B6823F002031C
:104540000B6000E0521E4B6803F00203022B01D106
:10455000002AF7D14B6803F00203022B00D00120A0
:104560007047014600208A6902F0700070470146DA
:1045700000208A69100E7047014600208A69C2F344
:10458000074070471AB143690B43436102E0436936
:104590008B434361704710B50246002001F470035D
:1045A00043B19369C1F3130423400BB101202DE003
:1045B00000202BE001F0807343B15368C1F3130472
:1045C00023400BB1012021E000201FE001F0006337
:1045D00043B19368C1F3130423400BB1012015E0EC
:1045E000002013E001F0007343B1D368C1F313045A
:1045F00023400BB1012009E0002007E01369C1F35B
:10460000130423400BB1012000E0002010BD002264
:10461000244B994202D10023836111E0C1F31302BC
:1046200001F000730BB1C2600AE001F080630BB1CE
:10463000026105E001F000630BB1826000E04260BE
:1046400070470246002002EA01030BB1012000E09E
:104650000020704770B504460D460026606928406A
:10466000002872D0B5F5807F69D01DDC082D42D0BE
:1046700006DC012D2DD0022D31D0042D7FD134E068
:10468000102D3ED0202D42D0402D78D145E00000A5
:1046900003000004000300080000031000010008EC
:1046A0000001FFF77000F030B5F5004F61D009DC74
:1046B000B5F5007F4AD0B5F5806F4DD0B5F5006FE8
:1046C0005DD150E0B5F5803F2DD0B5F5003F56D116
:1046D0002FE0A0685549FFF7B4FF064651E0E068B7
:1046E0000321FFF7AEFF06464BE0E0680821FFF725
:1046F000A8FF064645E0E0681021FFF7A2FF064646
:104700003FE020690321FFF79CFF064639E020695E
:104710000821FFF796FF064633E020691021FFF7D6
:1047200090FF06462DE060680821FFF78AFF0646E5
:1047300027E060681021FFF784FF064621E0A069AA
:104740000121FFF77EFF06461BE01BE0A069022166
:10475000FFF777FF064614E0A0690421FFF771FF19
:1047600006460EE00BE0A0697021FFF76AFF0646DF
:1047700007E060680421FFF764FF064601E00026B9
:1047800000BF00E00026304670BDB1F5007F3AD092
:104790000FDC202928D006DC01291CD004291DD0DB
:1047A000082940D11DE0402921D0B1F5807F3AD1C0
:1047B00026E0B1F5004F31D006DCB1F5806F25D091
:1047C000B1F5006F2FD124E0B1F5803F12D0B1F5E3
:1047D000003F28D111E0154A826025E00822C2601E
:1047E00022E01022C2601FE0082202611CE01022B9
:1047F000026119E00822426016E01022426013E0D4
:104800000422426010E0042242600DE00422426073
:104810000AE0002282610422426005E000228261F7
:104820000422426000E000BF00BF704701010100A8
:10483000016821F001010160002101604160816097
:10484000C160016121214161DB49884204D13D21E0
:10485000D94A103A91608CE0D7491831884205D185
:104860004FF47461D44A103A916082E0D2493031F9
:10487000884205D14FF47411CF4A103A916078E024
:10488000CD494831884205D14FF07461CA4A103A87
:1048900091606EE0C8496031884204D1C749C64A78
:1048A000103AD16065E0C4497831884204D1C449E6
:1048B000C14A103AD1605CE0BF499031884204D1CE
:1048C000C049BD4A103AD16053E0BB49A831884283
:1048D00005D14FF03D51B84A103AD16049E0BA498C
:1048E000884204D13D21B84A083A116041E0B649F6
:1048F0001831884205D14FF47461B34A083A116007
:1049000037E0B1493031884205D14FF47411AE4AD5
:10491000083A11602DE0AC494831884205D14FF08A
:104920007461A94A083A116023E0A74960318842BE
:1049300004D1A249A44A121F11601AE0A249783199
:10494000884204D19E49A04A121F116011E09E497D
:104950009031884204D19B499B4A121F116008E0A4
:104960009949A831884204D14FF03D51964A121F0F
:104970001160704710B500220268944B1A40CC6851
:104980000B6823434C6923438C692343CC6923433D
:104990000C6A23434C6A23438C6A23434C6B2343A6
:1049A0008C6B23431A430260426922F00702D1E96B
:1049B0000B3423431A4342610B6943604B688360A5
:1049C0008B68C36010BD0021016041608160C160DF
:1049D000016141618161C161016241628162C162C3
:1049E000016341638163704721B1026842F00102B3
:1049F000026003E0026822F001020260704721B108
:104A0000026842F40042026003E0026822F40042BD
:104A10000260704721B1026842F02002026003E0A8
:104A2000026822F020020260704741607047014630
:104A3000486880B2704722B1036843F400230360E2
:104A400003E0036823F4002303600161704721B190
:104A5000026842F48022026003E0026822F48022AD
:104A6000026070470AB1016100E0C1607047014611
:104A700000200A6802F400220AB1012000E00020B0
:104A80007047014600200A6802F001020AB10120C5
:104A900000E000207047014600204A6902F038001B
:104AA000704730B503460A4600200024464DAB420D
:104AB00002D24149103901E04349103902F0005552
:104AC0000DB14C6800E00C68414D2C4004EA020531
:104AD0000DB1012000E0002030BD02463A4B9A4261
:104AE00002D23548103801E03748103801F0005341
:104AF0001BB1374B0B40C36002E0354B0B4083606A
:104B0000704710B501F080034BB122B1436943F007
:104B10008003436103E0436923F0800343618029FC
:104B20000BD02AB1036801F01E042343036004E0A4
:104B3000036801F01E04A343036010BD70B5024674
:104B4000002000240025204EB24202D21A4B103B16
:104B500001E01D4B103B1F4E0E4036B11E2606EAEB
:104B6000D124166806EA040502E0566906F08005BD
:104B700001F000560EB15C6800E01C68144E344031
:104B800004EA010616B10DB1012000E0002070BD5D
:104B900002460D4B9A4202D20748103801E00A48FB
:104BA000103801F000531BB1094B0B40C36002E009
:104BB000074B0B4083607047106002403D000020AF
:104BC000400F002000003D20106402403F801CF098
:104BD0007D0F7D0F3C0F3C0F10B504469848844272
:104BE00008D10121084600F087FB0021012000F0D8
:104BF00083FB76E09348844208D10121022000F033
:104C00007BFB0021022000F077FB6AE08E488442A3
:104C100008D10121042000F06FFB0021042000F0E6
:104C20006BFB5EE08948844208D10121082000F036
:104C300063FB0021082000F05FFB52E084488442BF
:104C400008D10121102000F057FB0021102000F0B6
:104C500053FB46E07F48844208D10121202000F028
:104C60004BFB0021202000F047FB3AE07A488442C9
:104C700008D10121402000F03FFB0021402000F03E
:104C80003BFB2EE07548844208D10121802000F0D2
:104C900033FB0021802000F02FFB22E0704884428B
:104CA00008D10121801500F027FB0021A01500F09C
:104CB00023FB16E06B48844208D10121401500F027
:104CC0001BFB0021601500F017FB0AE066488442D8
:104CD00007D10121001500F00FFB0021201500F085
:104CE0000BFB10BDF0B50A4600210023002400BFD5
:104CF0003DE0012505FA01F3156805EA03049C422D
:104D000034D105684F000326BE40B54305601579D0
:104D10004E00B5400668354305601579012D02D077
:104D20001579022D16D185684F000326BE40B54384
:104D3000856055794E00B540866835438560456885
:104D400001268E40B5434560456896798E40B6B2DF
:104D500035434560C5684F000326BE40B543C56076
:104D6000D5794E00B540C6683543C560491C102949
:104D7000BFD3F0BD4FF6FF71016000210171417199
:104D80008171C171704708B54FF480320092009A6A
:104D90000A430092009AC261C161009AC261C2696D
:104DA0000092C269009208BD0246002013690B40C0
:104DB0000BB1012000E0002070470146086980B275
:104DC00070470246002053690B400BB1012000E000
:104DD000002070470146486980B2704701837047E0
:104DE000418370470AB1018300E04183704741610C
:104DF000704742694A4042617047F0B50023002481
:104E00004D07ED0E02FA05F3CE1000F1200555F81E
:104E100026504E07F70E0F26BE40B543CF1000F1C7
:104E2000200646F82750CE1000F1200555F82650F0
:104E300045EA0304CE1000F1200545F82640F0BDF8
:104E4000000002400004024000080240000C024042
:104E5000001002400014024000180240001C0240F2
:104E6000002002400024024000280240F64800686A
:104E700040F00100F44908600020F349083108605F
:104E8000F1480068F1490840EF490860F048091D01
:104E90000860F048EC4984310860ED481038091D7D
:104EA0000860E948006820F48020E7490860002095
:104EB000E5490C310860E4498C31086070470021F5
:104EC000E14A921C117011460870704710B50146F6
:104ED0000022002300204A11012A02D1DA4C236863
:104EE00008E0022A03D1D84C7034236802E0D64C83
:104EF0007434236801F01F02012494401C400CB15B
:104F0000012000E0002010BD38B5002000900024F2
:104F1000002500BF3120FFF7D9FF05460098401C4F
:104F200000900098B0F5A04F01D0002DF2D03120B4
:104F3000FFF7CCFF08B1012400E00024204638BD73
:104F400001460020C04A106820F0F80040EAC10085
:104F500010607047C049086070470021BA4A70323B
:104F600011701170012802D004280AD104E0012137
:104F7000B54A7032117005E00521B34A70321170E4
:104F800000E000BF00BF7047B4490860704770B5CB
:104F9000049C41EA82150126C6EB530645EA064504
:104FA000054345EA0465A84E361D356070BDAA4923
:104FB0000866704710B5830143EA016343EA027350
:104FC000A14C8434236010BDA3498866704710B596
:104FD000830143EA016343EA02739B4C88342360F4
:104FE00010BD9D49086770479B49C86470470246D9
:104FF0000020954B0833186820F0EC6042EA01036A
:105000001843914B083318607047024600208E4BBE
:105010000833186820F0784042EA010318438A4BAD
:1050200008331860704701460020874A083210682C
:1050300020F0030008431060704783480830006880
:1050400000F00C007047014600207F4A08321068CB
:1050500020F0F000084310607047014600207A4AB3
:105060000832106820F4E050084310607047014691
:105070000020754A0832106820F4604040EAC10000
:1050800010607047F0B500210022002402250026A0
:1050900002236D4F08373F6807F00C0121B1042946
:1050A00005D0082937D105E06D4F076036E06D4F18
:1050B000076033E0644F3F1D3F68C7F38056624F7F
:1050C0003F1D3F6807F03F036EB1664FB7FBF3F734
:1050D000DFF874C10CF1040CDCF800C0CCF3881CC0
:1050E00007FB0CF40CE05E4FB7FBF3F7DFF858C199
:1050F0000CF1040CDCF800C0CCF3881C07FB0CF4AA
:10510000514F3F1D3F68C7F301477F1C7D00B4FB33
:10511000F5F7076002E0524F076000BF00BF4A4F3B
:1051200008373F6807F0F00109094F4F7A5C0768BC
:10513000D7404760444F08373F6807F4E051890A79
:10514000494F7A5C4768D74087603F4F08373F68D0
:1051500007F46041490B444F7A5C4768D740C76009
:10516000F0BD002100F44072B2F5407F0AD1364A0A
:105170000832116821F4F8113C4A02401143324AC6
:1051800008321160304A70321268C0F30B031A43C0
:105190002D4B70331A6070473049443908607047AE
:1051A0002E49403908607047314908607047014610
:1051B0000020254A8C32106820F01F004A1E104340
:1051C000214A8C3210607047014600201E4A8C3202
:1051D000106820F4F8504A1E40EA02201A4A8C3225
:1051E0001060704701460020174A8C32106820F486
:1051F000401008431060704701460020124A8C326C
:10520000106820F4400008431060704701460020F9
:105210000D4A8C32106820F440300843106070470B
:1052200014490860704739B1074A303212680243A6
:10523000054B30331A6006E0034A3032126882436D
:10524000014B30331A60704700380240FFFFF6EA26
:10525000103000240030002000004742800E4742FA
:105260000024F400001BB7008F000020FFFCFF0F9C
:105270005C014742E011474229B1934A1268024358
:10528000914B1A6004E0904A126882438E4B1A6078
:10529000704739B18C4A121D126802438A4B1B1D9C
:1052A0001A6006E0884A121D12688243864B1B1D55
:1052B0001A60704739B1844A0C3212680243824B3B
:1052C0000C331A6006E0804A0C32126882437E4B2F
:1052D0000C331A60704739B17B4A103212680243AE
:1052E000794B10331A6006E0774A10321268824315
:1052F000754B10331A60704739B1734A243A1268FB
:105300000243714B243B1A6006E06F4A243A12684C
:1053100082436D4B243B1A60704739B16A4A203A88
:1053200012680243684B203B1A6006E0664A203A46
:1053300012688243644B203B1A60704739B1624A5D
:105340001C3A12680243604B1C3B1A6006E05E4A3E
:105350001C3A126882435C4B1C3B1A60704739B19F
:10536000594A143A12680243574B143B1A6006E03C
:10537000554A143A12688243534B143B1A607047E3
:1053800039B1514A103A126802434F4B103B1A6030
:1053900006E04D4A103A126882434B4B103B1A60AC
:1053A000704739B1484A1C3212680243464B1C33DD
:1053B0001A6006E0444A1C3212688243424B1C3396
:1053C0001A60704739B1404A2032126802433E4B9E
:1053D00020331A6006E03C4A2032126882433A4B7E
:1053E00020331A60704739B1374A243212680243B9
:1053F000354B24331A6006E0334A24321268824364
:10540000314B24331A60704739B12F4A2C3212685D
:1054100002432D4B2C331A6006E02B4A2C321268C3
:105420008243294B2C331A60704739B1264A3032F7
:1054300012680243244B30331A6006E0224A3032AD
:1054400012688243204B30331A607047012808D11C
:105450001D493C31096841F008011B4A3C3211608A
:1054600007E019493C31096821F00801164A3C322D
:105470001160704739B1144A273A12780243124B2F
:10548000273B1A7006E0104A273A127882430E4BE7
:10549000273B1A7070470C484030006840F080701D
:1054A000094940310860704701460020064A283A01
:1054B00012680A400AB1012000E00020704702494A
:1054C00026390870704700003438024010B5044691
:1054D000FE48844208D101210846FFF751FF002110
:1054E0000120FFF74DFF9DE0B4F1804F08D101216D
:1054F0000846FFF734FF00210120FFF730FF91E05D
:10550000F348844208D101210220FFF728FF00213F
:105510000220FFF724FF85E0EE48844208D10121F4
:105520000420FFF71CFF00210420FFF718FF79E09B
:10553000E948844208D101210820FFF710FF00212B
:105540000820FFF70CFF6DE0E448844208D10121F8
:105550001020FFF704FF00211020FFF700FF61E09B
:10556000DF48844208D101212020FFF7F8FE002106
:105570002020FFF7F4FE55E0DA48844208D10121EB
:105580000220FFF7FDFE00210220FFF7F9FE49E0AF
:10559000D548844209D101210804FFF7F1FE00211A
:1055A0004FF48030FFF7ECFE3CE0D048844209D154
:1055B00001214804FFF7E4FE00214FF40030FFF71B
:1055C000DFFE2FE0CA48844209D101218804FFF799
:1055D000D7FE00214FF48020FFF7D2FE22E0C5481D
:1055E000844208D101214020FFF7B9FE002140206C
:1055F000FFF7B5FE16E0C048844208D101218020A3
:10560000FFF7ADFE00218020FFF7A9FE0AE0BB48AE
:10561000844207D101218015FFF7A1FE0021A015CA
:10562000FFF79DFE10BD00220288A84B98420ED0C5
:10563000AC4B98420BD0B0F1804F08D0A44B9842AD
:1056400005D0A44B984202D0A34B984204D14FF608
:105650008F731A404B881A43A04B984207D0A04B37
:10566000984204D04FF6FF431A400B891A43028038
:105670004B68C3620B880385944B984202D0994BC8
:10568000984201D18B7A03860123838270474FF0C1
:10569000FF314160002101800181418081727047AA
:1056A0000185828270470A46002101884FF68F7378
:1056B000194011430180704741627047C1627047D1
:1056C0000146486A70470146088D704721B102883B
:1056D00042F00202028004E002884FF6FD731A4095
:1056E0000280704721B1028842F00402028004E087
:1056F00002884FF6FB731A400280704721B102887E
:1057000042F08002028004E002884FF67F731A4064
:105710000280704702884FF6F7731A4002800288B1
:105720000A430280704702884FF6FF431A40028006
:1057300002880A430280704721B1028842F00102C8
:10574000028004E002884FF6FE731A400280704720
:1057500070B5002400220023058C4FF6FE763540FC
:105760000584028C8388048B4FF68F752C40B51E00
:105770002C400D882C43751E2A408D892A434D8864
:105780002A43524DA84202D0564DA84213D14FF69B
:10579000F7752A40CD892A434FF6FB752A408D883C
:1057A0002A434FF6FF652B404FF6FF552B400D8ADD
:1057B0002B434D8A2B43838004838D684563028489
:1057C00070BD70B5002400220023058C4FF6EF76E3
:1057D00035400584028C8388048B48F6FF752C4085
:1057E0004FF6FF452C400D884FF6FF7606EA05255B
:1057F0002C434FF6DF752A408D8906EA05152A43AA
:105800004D8806EA05152A43304DA84202D0354D91
:10581000A8421DD14FF67F752A40CD894FF6FF76FD
:1058200006EA05152A434FF6BF752A408D8806EA19
:1058300005152A434FF6FF352B404FF2FF752B40DD
:105840000D8A06EA85052B434D8A06EA85052B431A
:10585000838004838D688563028470BD70B50024E5
:1058600000220023058C4FF6FF6635400584028C2C
:105870008388848B4FF68F752C404FF6FC752C4037
:105880000D882C434FF6FF552A408D894FF6FF7641
:1058900006EA05252A434D8806EA05252A430B4DCD
:1058A000A84202D00F4DA84238D14FF2FF752A40CE
:1058B000CD894FF6FF7606EA05252A434FF6FF35D8
:1058C0002A408D8806EA05252A4319E00000014098
:1058D0000004004000080040000C004000100040A0
:1058E0000014004000040140004001400044014019
:1058F0000048014000180040001C0040002000400B
:105900004EF6FF752B404DF6FF752B400D8A06EACB
:1059100005152B434D8A06EA05152B4383808483A6
:105920008D68C563028470BD70B500220023002419
:10593000058C4EF6FF7635400584038C8488828B77
:1059400048F6FF752A404FF6FF452A400D884FF66E
:10595000FF7606EA05252A434DF6FF752B408D8913
:1059600006EA05352B434D8806EA05352B43FE4DE7
:10597000A84202D0FD4DA84208D14BF6FF752C403D
:105980000D8A4FF6FF7606EA85152C4384808283C4
:105990008D680564038470BD002101804180818091
:1059A00081608181C18101824182704770B5034667
:1059B000002000241846183001258D40ACB21D8C03
:1059C000A5431D8409B108290AD100EB61000568CF
:1059D0004FF68F76354005600568154305600FE08A
:1059E0000D1FC5F34E052844056848F6FF7635407F
:1059F000056005684FF6FF7606EA02263543056026
:105A000070BD4163704781637047C1637047016433
:105A100070470A460021018B4FF68F7319401143DE
:105A2000018370470A460021018B48F6FF73194035
:105A30004FF6FF7303EA02231943018370470A46B6
:105A40000021818B4FF68F7319401143818370477A
:105A50000A460021818B48F6FF7319404FF6FF7309
:105A600003EA02231943818370470A460021018B10
:105A70004FF6F77319401143018370470A4600211E
:105A8000018B4FF2FF7319404FF6FF7303EA0223B5
:105A90001943018370470A460021818B4FF6F77343
:105AA00019401143818370470A460021818B4FF2D0
:105AB000FF7319404FF6FF7303EA022319438183F2
:105AC00070470A460021018B4FF6FB7319401143C2
:105AD000018370470A460021018B4FF6FF331940BE
